{
  "contractName": "MergedLoyaltyContract",
  "abi": [
    {
      "inputs": [
        {
          "internalType": "string",
          "name": "name",
          "type": "string"
        },
        {
          "internalType": "string",
          "name": "symbol",
          "type": "string"
        },
        {
          "internalType": "uint256",
          "name": "initialSupply",
          "type": "uint256"
        }
      ],
      "stateMutability": "nonpayable",
      "type": "constructor"
    },
    {
      "anonymous": false,
      "inputs": [
        {
          "indexed": true,
          "internalType": "address",
          "name": "owner",
          "type": "address"
        },
        {
          "indexed": true,
          "internalType": "address",
          "name": "spender",
          "type": "address"
        },
        {
          "indexed": false,
          "internalType": "uint256",
          "name": "value",
          "type": "uint256"
        }
      ],
      "name": "Approval",
      "type": "event"
    },
    {
      "anonymous": false,
      "inputs": [
        {
          "indexed": true,
          "internalType": "address",
          "name": "from",
          "type": "address"
        },
        {
          "indexed": true,
          "internalType": "address",
          "name": "to",
          "type": "address"
        },
        {
          "indexed": false,
          "internalType": "uint256",
          "name": "value",
          "type": "uint256"
        }
      ],
      "name": "Transfer",
      "type": "event"
    },
    {
      "inputs": [
        {
          "internalType": "address",
          "name": "owner",
          "type": "address"
        },
        {
          "internalType": "address",
          "name": "spender",
          "type": "address"
        }
      ],
      "name": "allowance",
      "outputs": [
        {
          "internalType": "uint256",
          "name": "",
          "type": "uint256"
        }
      ],
      "stateMutability": "view",
      "type": "function"
    },
    {
      "inputs": [
        {
          "internalType": "address",
          "name": "spender",
          "type": "address"
        },
        {
          "internalType": "uint256",
          "name": "amount",
          "type": "uint256"
        }
      ],
      "name": "approve",
      "outputs": [
        {
          "internalType": "bool",
          "name": "",
          "type": "bool"
        }
      ],
      "stateMutability": "nonpayable",
      "type": "function"
    },
    {
      "inputs": [
        {
          "internalType": "address",
          "name": "account",
          "type": "address"
        }
      ],
      "name": "balanceOf",
      "outputs": [
        {
          "internalType": "uint256",
          "name": "",
          "type": "uint256"
        }
      ],
      "stateMutability": "view",
      "type": "function"
    },
    {
      "inputs": [],
      "name": "decimals",
      "outputs": [
        {
          "internalType": "uint8",
          "name": "",
          "type": "uint8"
        }
      ],
      "stateMutability": "view",
      "type": "function"
    },
    {
      "inputs": [
        {
          "internalType": "address",
          "name": "spender",
          "type": "address"
        },
        {
          "internalType": "uint256",
          "name": "subtractedValue",
          "type": "uint256"
        }
      ],
      "name": "decreaseAllowance",
      "outputs": [
        {
          "internalType": "bool",
          "name": "",
          "type": "bool"
        }
      ],
      "stateMutability": "nonpayable",
      "type": "function"
    },
    {
      "inputs": [
        {
          "internalType": "address",
          "name": "spender",
          "type": "address"
        },
        {
          "internalType": "uint256",
          "name": "addedValue",
          "type": "uint256"
        }
      ],
      "name": "increaseAllowance",
      "outputs": [
        {
          "internalType": "bool",
          "name": "",
          "type": "bool"
        }
      ],
      "stateMutability": "nonpayable",
      "type": "function"
    },
    {
      "inputs": [
        {
          "internalType": "address",
          "name": "",
          "type": "address"
        }
      ],
      "name": "isSeller",
      "outputs": [
        {
          "internalType": "bool",
          "name": "",
          "type": "bool"
        }
      ],
      "stateMutability": "view",
      "type": "function"
    },
    {
      "inputs": [],
      "name": "name",
      "outputs": [
        {
          "internalType": "string",
          "name": "",
          "type": "string"
        }
      ],
      "stateMutability": "view",
      "type": "function"
    },
    {
      "inputs": [],
      "name": "owner",
      "outputs": [
        {
          "internalType": "address",
          "name": "",
          "type": "address"
        }
      ],
      "stateMutability": "view",
      "type": "function"
    },
    {
      "inputs": [],
      "name": "symbol",
      "outputs": [
        {
          "internalType": "string",
          "name": "",
          "type": "string"
        }
      ],
      "stateMutability": "view",
      "type": "function"
    },
    {
      "inputs": [],
      "name": "totalSupply",
      "outputs": [
        {
          "internalType": "uint256",
          "name": "",
          "type": "uint256"
        }
      ],
      "stateMutability": "view",
      "type": "function"
    },
    {
      "inputs": [
        {
          "internalType": "address",
          "name": "to",
          "type": "address"
        },
        {
          "internalType": "uint256",
          "name": "amount",
          "type": "uint256"
        }
      ],
      "name": "transfer",
      "outputs": [
        {
          "internalType": "bool",
          "name": "",
          "type": "bool"
        }
      ],
      "stateMutability": "nonpayable",
      "type": "function"
    },
    {
      "inputs": [
        {
          "internalType": "address",
          "name": "from",
          "type": "address"
        },
        {
          "internalType": "address",
          "name": "to",
          "type": "address"
        },
        {
          "internalType": "uint256",
          "name": "amount",
          "type": "uint256"
        }
      ],
      "name": "transferFrom",
      "outputs": [
        {
          "internalType": "bool",
          "name": "",
          "type": "bool"
        }
      ],
      "stateMutability": "nonpayable",
      "type": "function"
    },
    {
      "inputs": [
        {
          "internalType": "address",
          "name": "",
          "type": "address"
        }
      ],
      "name": "userBalances",
      "outputs": [
        {
          "internalType": "uint256",
          "name": "",
          "type": "uint256"
        }
      ],
      "stateMutability": "view",
      "type": "function"
    },
    {
      "inputs": [
        {
          "internalType": "address",
          "name": "newSeller",
          "type": "address"
        }
      ],
      "name": "addSeller",
      "outputs": [],
      "stateMutability": "nonpayable",
      "type": "function"
    },
    {
      "inputs": [
        {
          "internalType": "address",
          "name": "seller",
          "type": "address"
        }
      ],
      "name": "removeSeller",
      "outputs": [],
      "stateMutability": "nonpayable",
      "type": "function"
    },
    {
      "inputs": [
        {
          "internalType": "address",
          "name": "seller",
          "type": "address"
        },
        {
          "internalType": "uint256",
          "name": "balance",
          "type": "uint256"
        }
      ],
      "name": "setSellerBalance",
      "outputs": [],
      "stateMutability": "nonpayable",
      "type": "function"
    },
    {
      "inputs": [
        {
          "internalType": "address",
          "name": "user",
          "type": "address"
        },
        {
          "internalType": "uint256",
          "name": "amount",
          "type": "uint256"
        }
      ],
      "name": "grantTokensToUser",
      "outputs": [],
      "stateMutability": "nonpayable",
      "type": "function"
    },
    {
      "inputs": [
        {
          "internalType": "uint256",
          "name": "amount",
          "type": "uint256"
        }
      ],
      "name": "redeemTokens",
      "outputs": [],
      "stateMutability": "nonpayable",
      "type": "function"
    },
    {
      "inputs": [],
      "name": "checkBalance",
      "outputs": [
        {
          "internalType": "uint256",
          "name": "",
          "type": "uint256"
        }
      ],
      "stateMutability": "view",
      "type": "function"
    },
    {
      "inputs": [],
      "name": "getSender",
      "outputs": [
        {
          "internalType": "address",
          "name": "",
          "type": "address"
        }
      ],
      "stateMutability": "view",
      "type": "function"
    }
  ],
  "bytecode": "0x60806040523480156200001157600080fd5b50604051620026b1380380620026b1833981810160405281019062000037919062000520565b828281600390805190602001906200005192919062000298565b5080600490805190602001906200006a92919062000298565b5050506200007f33826200012160201b60201c565b33600560006101000a81548173ffffffffffffffffffffffffffffffffffffffff021916908373ffffffffffffffffffffffffffffffffffffffff1602179055506001600760003373ffffffffffffffffffffffffffffffffffffffff1673ffffffffffffffffffffffffffffffffffffffff16815260200190815260200160002060006101000a81548160ff0219169083151502179055505050506200075b565b600073ffffffffffffffffffffffffffffffffffffffff168273ffffffffffffffffffffffffffffffffffffffff160362000193576040517f08c379a00000000000000000000000000000000000000000000000000000000081526004016200018a906200061b565b60405180910390fd5b620001a7600083836200028e60201b60201c565b8060026000828254620001bb91906200066c565b92505081905550806000808473ffffffffffffffffffffffffffffffffffffffff1673ffffffffffffffffffffffffffffffffffffffff168152602001908152602001600020600082825401925050819055508173ffffffffffffffffffffffffffffffffffffffff16600073ffffffffffffffffffffffffffffffffffffffff167fddf252ad1be2c89b69c2b068fc378daa952ba7f163c4a11628f55a4df523b3ef836040516200026e9190620006da565b60405180910390a36200028a600083836200029360201b60201c565b5050565b505050565b505050565b828054620002a69062000726565b90600052602060002090601f016020900481019282620002ca576000855562000316565b82601f10620002e557805160ff191683800117855562000316565b8280016001018555821562000316579182015b8281111562000315578251825591602001919060010190620002f8565b5b50905062000325919062000329565b5090565b5b80821115620003445760008160009055506001016200032a565b5090565b6000604051905090565b600080fd5b600080fd5b600080fd5b600080fd5b6000601f19601f8301169050919050565b7f4e487b7100000000000000000000000000000000000000000000000000000000600052604160045260246000fd5b620003b18262000366565b810181811067ffffffffffffffff82111715620003d357620003d262000377565b5b80604052505050565b6000620003e862000348565b9050620003f68282620003a6565b919050565b600067ffffffffffffffff82111562000419576200041862000377565b5b620004248262000366565b9050602081019050919050565b60005b838110156200045157808201518184015260208101905062000434565b8381111562000461576000848401525b50505050565b60006200047e6200047884620003fb565b620003dc565b9050828152602081018484840111156200049d576200049c62000361565b5b620004aa84828562000431565b509392505050565b600082601f830112620004ca57620004c96200035c565b5b8151620004dc84826020860162000467565b91505092915050565b6000819050919050565b620004fa81620004e5565b81146200050657600080fd5b50565b6000815190506200051a81620004ef565b92915050565b6000806000606084860312156200053c576200053b62000352565b5b600084015167ffffffffffffffff8111156200055d576200055c62000357565b5b6200056b86828701620004b2565b935050602084015167ffffffffffffffff8111156200058f576200058e62000357565b5b6200059d86828701620004b2565b9250506040620005b08682870162000509565b9150509250925092565b600082825260208201905092915050565b7f45524332303a206d696e7420746f20746865207a65726f206164647265737300600082015250565b600062000603601f83620005ba565b91506200061082620005cb565b602082019050919050565b600060208201905081810360008301526200063681620005f4565b9050919050565b7f4e487b7100000000000000000000000000000000000000000000000000000000600052601160045260246000fd5b60006200067982620004e5565b91506200068683620004e5565b9250827fffffffffffffffffffffffffffffffffffffffffffffffffffffffffffffffff03821115620006be57620006bd6200063d565b5b828201905092915050565b620006d481620004e5565b82525050565b6000602082019050620006f16000830184620006c9565b92915050565b7f4e487b7100000000000000000000000000000000000000000000000000000000600052602260045260246000fd5b600060028204905060018216806200073f57607f821691505b602082108103620007555762000754620006f7565b5b50919050565b611f46806200076b6000396000f3fe608060405234801561001057600080fd5b50600436106101375760003560e01c80637cb9cf54116100b8578063a9059cbb1161007c578063a9059cbb14610364578063c71daccb14610394578063d93fabfa146103b2578063dd62ed3e146103ce578063ee95feaf146103fe578063fba6269c1461042e57610137565b80637cb9cf54146102c05780638da5cb5b146102dc57806395d89b41146102fa578063a457c2d714610318578063a6e158f81461034857610137565b8063313ce567116100ff578063313ce56714610208578063395093511461022657806353418aae146102565780635e01eb5a1461027257806370a082311461029057610137565b806306fdde031461013c578063095ea7b31461015a57806318160ddd1461018a57806323b872dd146101a857806326224c64146101d8575b600080fd5b61014461044a565b60405161015191906114a2565b60405180910390f35b610174600480360381019061016f919061155d565b6104dc565b60405161018191906115b8565b60405180910390f35b6101926104ff565b60405161019f91906115e2565b60405180910390f35b6101c260048036038101906101bd91906115fd565b610509565b6040516101cf91906115b8565b60405180910390f35b6101f260048036038101906101ed9190611650565b610538565b6040516101ff91906115e2565b60405180910390f35b610210610550565b60405161021d9190611699565b60405180910390f35b610240600480360381019061023b919061155d565b610559565b60405161024d91906115b8565b60405180910390f35b610270600480360381019061026b919061155d565b610590565b005b61027a610668565b60405161028791906116c3565b60405180910390f35b6102aa60048036038101906102a59190611650565b610692565b6040516102b791906115e2565b60405180910390f35b6102da60048036038101906102d59190611650565b6106da565b005b6102e46107c5565b6040516102f191906116c3565b60405180910390f35b6103026107eb565b60405161030f91906114a2565b60405180910390f35b610332600480360381019061032d919061155d565b61087d565b60405161033f91906115b8565b60405180910390f35b610362600480360381019061035d91906116de565b6108f4565b005b61037e6004803603810190610379919061155d565b6109cf565b60405161038b91906115b8565b60405180910390f35b61039c6109f2565b6040516103a991906115e2565b60405180910390f35b6103cc60048036038101906103c79190611650565b610a39565b005b6103e860048036038101906103e3919061170b565b610b24565b6040516103f591906115e2565b60405180910390f35b61041860048036038101906104139190611650565b610bab565b60405161042591906115b8565b60405180910390f35b6104486004803603810190610443919061155d565b610bcb565b005b6060600380546104599061177a565b80601f01602080910402602001604051908101604052809291908181526020018280546104859061177a565b80156104d25780601f106104a7576101008083540402835291602001916104d2565b820191906000526020600020905b8154815290600101906020018083116104b557829003601f168201915b5050505050905090565b6000806104e7610dd6565b90506104f4818585610dde565b600191505092915050565b6000600254905090565b600080610514610dd6565b9050610521858285610fa7565b61052c858585611033565b60019150509392505050565b60066020528060005260406000206000915090505481565b60006012905090565b600080610564610dd6565b90506105858185856105768589610b24565b61058091906117da565b610dde565b600191505092915050565b600560009054906101000a900473ffffffffffffffffffffffffffffffffffffffff1673ffffffffffffffffffffffffffffffffffffffff163373ffffffffffffffffffffffffffffffffffffffff1614610620576040517f08c379a0000000000000000000000000000000000000000000000000000000008152600401610617906118a2565b60405180910390fd5b80600660008473ffffffffffffffffffffffffffffffffffffffff1673ffffffffffffffffffffffffffffffffffffffff168152602001908152602001600020819055505050565b6000600560009054906101000a900473ffffffffffffffffffffffffffffffffffffffff16905090565b60008060008373ffffffffffffffffffffffffffffffffffffffff1673ffffffffffffffffffffffffffffffffffffffff168152602001908152602001600020549050919050565b600560009054906101000a900473ffffffffffffffffffffffffffffffffffffffff1673ffffffffffffffffffffffffffffffffffffffff163373ffffffffffffffffffffffffffffffffffffffff161461076a576040517f08c379a0000000000000000000000000000000000000000000000000000000008152600401610761906118a2565b60405180910390fd5b6000600760008373ffffffffffffffffffffffffffffffffffffffff1673ffffffffffffffffffffffffffffffffffffffff16815260200190815260200160002060006101000a81548160ff02191690831515021790555050565b600560009054906101000a900473ffffffffffffffffffffffffffffffffffffffff1681565b6060600480546107fa9061177a565b80601f01602080910402602001604051908101604052809291908181526020018280546108269061177a565b80156108735780601f1061084857610100808354040283529160200191610873565b820191906000526020600020905b81548152906001019060200180831161085657829003601f168201915b5050505050905090565b600080610888610dd6565b905060006108968286610b24565b9050838110156108db576040517f08c379a00000000000000000000000000000000000000000000000000000000081526004016108d290611934565b60405180910390fd5b6108e88286868403610dde565b60019250505092915050565b80600660003373ffffffffffffffffffffffffffffffffffffffff1673ffffffffffffffffffffffffffffffffffffffff168152602001908152602001600020541015610976576040517f08c379a000000000000000000000000000000000000000000000000000000000815260040161096d906119a0565b60405180910390fd5b80600660003373ffffffffffffffffffffffffffffffffffffffff1673ffffffffffffffffffffffffffffffffffffffff16815260200190815260200160002060008282546109c591906119c0565b9250508190555050565b6000806109da610dd6565b90506109e7818585611033565b600191505092915050565b6000600660003373ffffffffffffffffffffffffffffffffffffffff1673ffffffffffffffffffffffffffffffffffffffff16815260200190815260200160002054905090565b600560009054906101000a900473ffffffffffffffffffffffffffffffffffffffff1673ffffffffffffffffffffffffffffffffffffffff163373ffffffffffffffffffffffffffffffffffffffff1614610ac9576040517f08c379a0000000000000000000000000000000000000000000000000000000008152600401610ac0906118a2565b60405180910390fd5b6001600760008373ffffffffffffffffffffffffffffffffffffffff1673ffffffffffffffffffffffffffffffffffffffff16815260200190815260200160002060006101000a81548160ff02191690831515021790555050565b6000600160008473ffffffffffffffffffffffffffffffffffffffff1673ffffffffffffffffffffffffffffffffffffffff16815260200190815260200160002060008373ffffffffffffffffffffffffffffffffffffffff1673ffffffffffffffffffffffffffffffffffffffff16815260200190815260200160002054905092915050565b60076020528060005260406000206000915054906101000a900460ff1681565b600760003373ffffffffffffffffffffffffffffffffffffffff1673ffffffffffffffffffffffffffffffffffffffff16815260200190815260200160002060009054906101000a900460ff16610c57576040517f08c379a0000000000000000000000000000000000000000000000000000000008152600401610c4e90611a66565b60405180910390fd5b60008111610c9a576040517f08c379a0000000000000000000000000000000000000000000000000000000008152600401610c9190611ad2565b60405180910390fd5b80600660003373ffffffffffffffffffffffffffffffffffffffff1673ffffffffffffffffffffffffffffffffffffffff168152602001908152602001600020541015610d1c576040517f08c379a0000000000000000000000000000000000000000000000000000000008152600401610d1390611b3e565b60405180910390fd5b80600660003373ffffffffffffffffffffffffffffffffffffffff1673ffffffffffffffffffffffffffffffffffffffff1681526020019081526020016000206000828254610d6b91906119c0565b9250508190555080600660008473ffffffffffffffffffffffffffffffffffffffff1673ffffffffffffffffffffffffffffffffffffffff1681526020019081526020016000206000828254610dc191906117da565b92505081905550610dd282826112a9565b5050565b600033905090565b600073ffffffffffffffffffffffffffffffffffffffff168373ffffffffffffffffffffffffffffffffffffffff1603610e4d576040517f08c379a0000000000000000000000000000000000000000000000000000000008152600401610e4490611bd0565b60405180910390fd5b600073ffffffffffffffffffffffffffffffffffffffff168273ffffffffffffffffffffffffffffffffffffffff1603610ebc576040517f08c379a0000000000000000000000000000000000000000000000000000000008152600401610eb390611c62565b60405180910390fd5b80600160008573ffffffffffffffffffffffffffffffffffffffff1673ffffffffffffffffffffffffffffffffffffffff16815260200190815260200160002060008473ffffffffffffffffffffffffffffffffffffffff1673ffffffffffffffffffffffffffffffffffffffff168152602001908152602001600020819055508173ffffffffffffffffffffffffffffffffffffffff168373ffffffffffffffffffffffffffffffffffffffff167f8c5be1e5ebec7d5bd14f71427d1e84f3dd0314c0f7b2291e5b200ac8c7c3b92583604051610f9a91906115e2565b60405180910390a3505050565b6000610fb38484610b24565b90507fffffffffffffffffffffffffffffffffffffffffffffffffffffffffffffffff811461102d578181101561101f576040517f08c379a000000000000000000000000000000000000000000000000000000000815260040161101690611cce565b60405180910390fd5b61102c8484848403610dde565b5b50505050565b600073ffffffffffffffffffffffffffffffffffffffff168373ffffffffffffffffffffffffffffffffffffffff16036110a2576040517f08c379a000000000000000000000000000000000000000000000000000000000815260040161109990611d60565b60405180910390fd5b600073ffffffffffffffffffffffffffffffffffffffff168273ffffffffffffffffffffffffffffffffffffffff1603611111576040517f08c379a000000000000000000000000000000000000000000000000000000000815260040161110890611df2565b60405180910390fd5b61111c8383836113ff565b60008060008573ffffffffffffffffffffffffffffffffffffffff1673ffffffffffffffffffffffffffffffffffffffff168152602001908152602001600020549050818110156111a2576040517f08c379a000000000000000000000000000000000000000000000000000000000815260040161119990611e84565b60405180910390fd5b8181036000808673ffffffffffffffffffffffffffffffffffffffff1673ffffffffffffffffffffffffffffffffffffffff16815260200190815260200160002081905550816000808573ffffffffffffffffffffffffffffffffffffffff1673ffffffffffffffffffffffffffffffffffffffff168152602001908152602001600020600082825401925050819055508273ffffffffffffffffffffffffffffffffffffffff168473ffffffffffffffffffffffffffffffffffffffff167fddf252ad1be2c89b69c2b068fc378daa952ba7f163c4a11628f55a4df523b3ef8460405161129091906115e2565b60405180910390a36112a3848484611404565b50505050565b600073ffffffffffffffffffffffffffffffffffffffff168273ffffffffffffffffffffffffffffffffffffffff1603611318576040517f08c379a000000000000000000000000000000000000000000000000000000000815260040161130f90611ef0565b60405180910390fd5b611324600083836113ff565b806002600082825461133691906117da565b92505081905550806000808473ffffffffffffffffffffffffffffffffffffffff1673ffffffffffffffffffffffffffffffffffffffff168152602001908152602001600020600082825401925050819055508173ffffffffffffffffffffffffffffffffffffffff16600073ffffffffffffffffffffffffffffffffffffffff167fddf252ad1be2c89b69c2b068fc378daa952ba7f163c4a11628f55a4df523b3ef836040516113e791906115e2565b60405180910390a36113fb60008383611404565b5050565b505050565b505050565b600081519050919050565b600082825260208201905092915050565b60005b83811015611443578082015181840152602081019050611428565b83811115611452576000848401525b50505050565b6000601f19601f8301169050919050565b600061147482611409565b61147e8185611414565b935061148e818560208601611425565b61149781611458565b840191505092915050565b600060208201905081810360008301526114bc8184611469565b905092915050565b600080fd5b600073ffffffffffffffffffffffffffffffffffffffff82169050919050565b60006114f4826114c9565b9050919050565b611504816114e9565b811461150f57600080fd5b50565b600081359050611521816114fb565b92915050565b6000819050919050565b61153a81611527565b811461154557600080fd5b50565b60008135905061155781611531565b92915050565b60008060408385031215611574576115736114c4565b5b600061158285828601611512565b925050602061159385828601611548565b9150509250929050565b60008115159050919050565b6115b28161159d565b82525050565b60006020820190506115cd60008301846115a9565b92915050565b6115dc81611527565b82525050565b60006020820190506115f760008301846115d3565b92915050565b600080600060608486031215611616576116156114c4565b5b600061162486828701611512565b935050602061163586828701611512565b925050604061164686828701611548565b9150509250925092565b600060208284031215611666576116656114c4565b5b600061167484828501611512565b91505092915050565b600060ff82169050919050565b6116938161167d565b82525050565b60006020820190506116ae600083018461168a565b92915050565b6116bd816114e9565b82525050565b60006020820190506116d860008301846116b4565b92915050565b6000602082840312156116f4576116f36114c4565b5b600061170284828501611548565b91505092915050565b60008060408385031215611722576117216114c4565b5b600061173085828601611512565b925050602061174185828601611512565b9150509250929050565b7f4e487b7100000000000000000000000000000000000000000000000000000000600052602260045260246000fd5b6000600282049050600182168061179257607f821691505b6020821081036117a5576117a461174b565b5b50919050565b7f4e487b7100000000000000000000000000000000000000000000000000000000600052601160045260246000fd5b60006117e582611527565b91506117f083611527565b9250827fffffffffffffffffffffffffffffffffffffffffffffffffffffffffffffffff03821115611825576118246117ab565b5b828201905092915050565b7f4f6e6c7920746865206f776e65722063616e20706572666f726d20746869732060008201527f616374696f6e0000000000000000000000000000000000000000000000000000602082015250565b600061188c602683611414565b915061189782611830565b604082019050919050565b600060208201905081810360008301526118bb8161187f565b9050919050565b7f45524332303a2064656372656173656420616c6c6f77616e63652062656c6f7760008201527f207a65726f000000000000000000000000000000000000000000000000000000602082015250565b600061191e602583611414565b9150611929826118c2565b604082019050919050565b6000602082019050818103600083015261194d81611911565b9050919050565b7f496e73756666696369656e742062616c616e636520746f2072656465656d0000600082015250565b600061198a601e83611414565b915061199582611954565b602082019050919050565b600060208201905081810360008301526119b98161197d565b9050919050565b60006119cb82611527565b91506119d683611527565b9250828210156119e9576119e86117ab565b5b828203905092915050565b7f4f6e6c7920617574686f72697a65642073656c6c6572732063616e207065726660008201527f6f726d207468697320616374696f6e0000000000000000000000000000000000602082015250565b6000611a50602f83611414565b9150611a5b826119f4565b604082019050919050565b60006020820190508181036000830152611a7f81611a43565b9050919050565b7f416d6f756e74206d7573742062652067726561746572207468616e2030000000600082015250565b6000611abc601d83611414565b9150611ac782611a86565b602082019050919050565b60006020820190508181036000830152611aeb81611aaf565b9050919050565b7f496e73756666696369656e742073656c6c65722062616c616e63650000000000600082015250565b6000611b28601b83611414565b9150611b3382611af2565b602082019050919050565b60006020820190508181036000830152611b5781611b1b565b9050919050565b7f45524332303a20617070726f76652066726f6d20746865207a65726f2061646460008201527f7265737300000000000000000000000000000000000000000000000000000000602082015250565b6000611bba602483611414565b9150611bc582611b5e565b604082019050919050565b60006020820190508181036000830152611be981611bad565b9050919050565b7f45524332303a20617070726f766520746f20746865207a65726f20616464726560008201527f7373000000000000000000000000000000000000000000000000000000000000602082015250565b6000611c4c602283611414565b9150611c5782611bf0565b604082019050919050565b60006020820190508181036000830152611c7b81611c3f565b9050919050565b7f45524332303a20696e73756666696369656e7420616c6c6f77616e6365000000600082015250565b6000611cb8601d83611414565b9150611cc382611c82565b602082019050919050565b60006020820190508181036000830152611ce781611cab565b9050919050565b7f45524332303a207472616e736665722066726f6d20746865207a65726f20616460008201527f6472657373000000000000000000000000000000000000000000000000000000602082015250565b6000611d4a602583611414565b9150611d5582611cee565b604082019050919050565b60006020820190508181036000830152611d7981611d3d565b9050919050565b7f45524332303a207472616e7366657220746f20746865207a65726f206164647260008201527f6573730000000000000000000000000000000000000000000000000000000000602082015250565b6000611ddc602383611414565b9150611de782611d80565b604082019050919050565b60006020820190508181036000830152611e0b81611dcf565b9050919050565b7f45524332303a207472616e7366657220616d6f756e742065786365656473206260008201527f616c616e63650000000000000000000000000000000000000000000000000000602082015250565b6000611e6e602683611414565b9150611e7982611e12565b604082019050919050565b60006020820190508181036000830152611e9d81611e61565b9050919050565b7f45524332303a206d696e7420746f20746865207a65726f206164647265737300600082015250565b6000611eda601f83611414565b9150611ee582611ea4565b602082019050919050565b60006020820190508181036000830152611f0981611ecd565b905091905056fea26469706673582212206124414e307cb7eb6bc2c074b31bd62e9185a9aeb24d96856332004d577929b264736f6c634300080d0033",
  "immutableReferences": {},
  "source": "// SPDX-License-Identifier: MIT\r\npragma solidity ^0.8.4;\r\n\r\nimport \"@openzeppelin/contracts/token/ERC20/ERC20.sol\";\r\nimport \"@openzeppelin/contracts/token/ERC20/IERC20.sol\";\r\n\r\ncontract MergedLoyaltyContract is ERC20 {\r\n    address public owner;\r\n\r\n    mapping(address => uint256) public userBalances;\r\n    // mapping(address => uint256) public sellerBalances;\r\n    mapping(address => bool) public isSeller;\r\n\r\n\r\n    constructor(\r\n        string memory name,\r\n        string memory symbol,\r\n        uint256 initialSupply\r\n    ) ERC20(name, symbol) {\r\n        _mint(msg.sender, initialSupply);\r\n        owner = msg.sender;\r\n        isSeller[msg.sender] = true; // Owner is also a seller by default\r\n    }\r\n\r\n    modifier onlyOwner() {\r\n        require(msg.sender == owner, \"Only the owner can perform this action\");\r\n        _;\r\n    }\r\n\r\n    modifier onlySeller() {\r\n        require(\r\n            isSeller[msg.sender],\r\n            \"Only authorized sellers can perform this action\"\r\n        );\r\n        _;\r\n    }\r\n\r\n    function addSeller(address newSeller) public onlyOwner {\r\n        isSeller[newSeller] = true;\r\n    }\r\n\r\n    function removeSeller(address seller) public onlyOwner {\r\n        isSeller[seller] = false;\r\n    }\r\n\r\n    function setSellerBalance(\r\n        address seller,\r\n        uint256 balance\r\n    ) public onlyOwner {\r\n        userBalances[seller] = balance;\r\n        // isSeller[seller] = true;\r\n    }\r\n\r\n    function grantTokensToUser(address user, uint256 amount) public onlySeller {\r\n        require(amount > 0, \"Amount must be greater than 0\");\r\n        require(\r\n            userBalances[msg.sender] >= amount,\r\n            \"Insufficient seller balance\"\r\n        );\r\n\r\n        userBalances[msg.sender] -= amount;\r\n        userBalances[user] += amount;\r\n        _mint(user, amount);\r\n        // if(!findUser(user)) users.push(user);\r\n    }\r\n\r\n    function redeemTokens(uint256 amount) public {\r\n        require(\r\n            userBalances[msg.sender] >= amount,\r\n            \"Insufficient balance to redeem\"\r\n        );\r\n\r\n        // _burn(msg.sender, amount);\r\n        userBalances[msg.sender] -= amount;\r\n    }\r\n\r\n    \r\n\r\n    function checkBalance() public view returns (uint256) {\r\n        return userBalances[msg.sender];\r\n    }\r\n\r\n    // function mint(address account, uint256 amount) public onlyOwner {\r\n    //     _mint(account, amount);\r\n    //     // if(!isSeller[account] && !findUser(account)) users.push(account);\r\n\r\n    //     userBalances[account] += amount;\r\n\r\n    // }\r\n\r\n    function getSender() public view returns (address) {\r\n        return owner;\r\n    }\r\n}\r\n// function getAllUserBalances() public view onlyOwner returns (address[] memory, uint256[] memory) {\r\n//     uint256 userCount = users.length; // Assuming you have a list of users\r\n//     address[] memory userAddresses = new address[](userCount);\r\n//     uint256[] memory userBalancesArray = new uint256[](userCount);\r\n\r\n//     for (uint256 i = 0; i < userCount; i++) {\r\n//         address user = users[i]; // Assuming you have a list of users\r\n//         userAddresses[i] = user;\r\n//         userBalancesArray[i] = userBalances[user];\r\n//     }\r\n\r\n//     return (userAddresses, userBalancesArray);\r\n// }\r\n\r\n//     function findUser(address user) public view returns (bool) {\r\n//             for (uint256 i = 0; i < users.length; i++) {\r\n//                 if (users[i] == user) {\r\n//                     return true;\r\n//                 }\r\n//             }\r\n//             return false;\r\n//     }\r\n// }\r\n",
  "sourcePath": "C:\\Users\\rajus\\Documents\\Flipkart_GRID_From_Scratch\\contracts\\MergedLoyaltyContract.sol",
  "compiler": {
    "name": "solc",
    "version": "0.8.13+commit.abaa5c0e.Emscripten.clang"
  },
  "schemaVersion": "3.4.15",
  "updatedAt": "2023-08-20T16:17:00.232Z",
  "devdoc": {
    "kind": "dev",
    "methods": {
      "allowance(address,address)": {
        "details": "See {IERC20-allowance}."
      },
      "approve(address,uint256)": {
        "details": "See {IERC20-approve}. NOTE: If `amount` is the maximum `uint256`, the allowance is not updated on `transferFrom`. This is semantically equivalent to an infinite approval. Requirements: - `spender` cannot be the zero address."
      },
      "balanceOf(address)": {
        "details": "See {IERC20-balanceOf}."
      },
      "decimals()": {
        "details": "Returns the number of decimals used to get its user representation. For example, if `decimals` equals `2`, a balance of `505` tokens should be displayed to a user as `5.05` (`505 / 10 ** 2`). Tokens usually opt for a value of 18, imitating the relationship between Ether and Wei. This is the default value returned by this function, unless it's overridden. NOTE: This information is only used for _display_ purposes: it in no way affects any of the arithmetic of the contract, including {IERC20-balanceOf} and {IERC20-transfer}."
      },
      "decreaseAllowance(address,uint256)": {
        "details": "Atomically decreases the allowance granted to `spender` by the caller. This is an alternative to {approve} that can be used as a mitigation for problems described in {IERC20-approve}. Emits an {Approval} event indicating the updated allowance. Requirements: - `spender` cannot be the zero address. - `spender` must have allowance for the caller of at least `subtractedValue`."
      },
      "increaseAllowance(address,uint256)": {
        "details": "Atomically increases the allowance granted to `spender` by the caller. This is an alternative to {approve} that can be used as a mitigation for problems described in {IERC20-approve}. Emits an {Approval} event indicating the updated allowance. Requirements: - `spender` cannot be the zero address."
      },
      "name()": {
        "details": "Returns the name of the token."
      },
      "symbol()": {
        "details": "Returns the symbol of the token, usually a shorter version of the name."
      },
      "totalSupply()": {
        "details": "See {IERC20-totalSupply}."
      },
      "transfer(address,uint256)": {
        "details": "See {IERC20-transfer}. Requirements: - `to` cannot be the zero address. - the caller must have a balance of at least `amount`."
      },
      "transferFrom(address,address,uint256)": {
        "details": "See {IERC20-transferFrom}. Emits an {Approval} event indicating the updated allowance. This is not required by the EIP. See the note at the beginning of {ERC20}. NOTE: Does not update the allowance if the current allowance is the maximum `uint256`. Requirements: - `from` and `to` cannot be the zero address. - `from` must have a balance of at least `amount`. - the caller must have allowance for ``from``'s tokens of at least `amount`."
      }
    },
    "version": 1
  },
  "userdoc": {
    "kind": "user",
    "methods": {},
    "version": 1
  }
}