{
  "contractName": "LoyaltyProgram",
  "abi": [
    {
      "inputs": [
        {
          "internalType": "address",
          "name": "_tokenAddress",
          "type": "address"
        },
        {
          "internalType": "uint256",
          "name": "_redemptionPeriod",
          "type": "uint256"
        }
      ],
      "stateMutability": "nonpayable",
      "type": "constructor"
    },
    {
      "inputs": [],
      "name": "redemptionPeriod",
      "outputs": [
        {
          "internalType": "uint256",
          "name": "",
          "type": "uint256"
        }
      ],
      "stateMutability": "view",
      "type": "function"
    },
    {
      "inputs": [],
      "name": "tokenAddress",
      "outputs": [
        {
          "internalType": "address",
          "name": "",
          "type": "address"
        }
      ],
      "stateMutability": "view",
      "type": "function"
    },
    {
      "inputs": [
        {
          "internalType": "address",
          "name": "",
          "type": "address"
        }
      ],
      "name": "userBalances",
      "outputs": [
        {
          "internalType": "uint256",
          "name": "",
          "type": "uint256"
        }
      ],
      "stateMutability": "view",
      "type": "function"
    },
    {
      "inputs": [
        {
          "internalType": "uint256",
          "name": "amount",
          "type": "uint256"
        }
      ],
      "name": "earnTokens",
      "outputs": [],
      "stateMutability": "nonpayable",
      "type": "function"
    },
    {
      "inputs": [
        {
          "internalType": "uint256",
          "name": "amount",
          "type": "uint256"
        }
      ],
      "name": "redeemTokens",
      "outputs": [],
      "stateMutability": "nonpayable",
      "type": "function"
    },
    {
      "inputs": [],
      "name": "checkBalance",
      "outputs": [
        {
          "internalType": "uint256",
          "name": "",
          "type": "uint256"
        }
      ],
      "stateMutability": "view",
      "type": "function"
    }
  ],
  "bytecode": "0x608060405234801561001057600080fd5b50604051610a73380380610a7383398181016040528101906100329190610119565b816000806101000a81548173ffffffffffffffffffffffffffffffffffffffff021916908373ffffffffffffffffffffffffffffffffffffffff160217905550806001819055505050610159565b600080fd5b600073ffffffffffffffffffffffffffffffffffffffff82169050919050565b60006100b082610085565b9050919050565b6100c0816100a5565b81146100cb57600080fd5b50565b6000815190506100dd816100b7565b92915050565b6000819050919050565b6100f6816100e3565b811461010157600080fd5b50565b600081519050610113816100ed565b92915050565b600080604083850312156101305761012f610080565b5b600061013e858286016100ce565b925050602061014f85828601610104565b9150509250929050565b61090b806101686000396000f3fe608060405234801561001057600080fd5b50600436106100625760003560e01c806326224c641461006757806330407d76146100975780639d76ea58146100b3578063a6e158f8146100d1578063c71daccb146100ed578063f09e8cd41461010b575b600080fd5b610081600480360381019061007c919061051e565b610129565b60405161008e9190610564565b60405180910390f35b6100b160048036038101906100ac91906105ab565b610141565b005b6100bb610285565b6040516100c891906105e7565b60405180910390f35b6100eb60048036038101906100e691906105ab565b6102a9565b005b6100f561046e565b6040516101029190610564565b60405180910390f35b6101136104b5565b6040516101209190610564565b60405180910390f35b60026020528060005260406000206000915090505481565b60008111610184576040517f08c379a000000000000000000000000000000000000000000000000000000000815260040161017b9061065f565b60405180910390fd5b60008060009054906101000a900473ffffffffffffffffffffffffffffffffffffffff1690508073ffffffffffffffffffffffffffffffffffffffff166323b872dd3330856040518463ffffffff1660e01b81526004016101e79392919061067f565b6020604051808303816000875af1158015610206573d6000803e3d6000fd5b505050506040513d601f19601f8201168201806040525081019061022a91906106ee565b5081600260003373ffffffffffffffffffffffffffffffffffffffff1673ffffffffffffffffffffffffffffffffffffffff168152602001908152602001600020600082825461027a919061074a565b925050819055505050565b60008054906101000a900473ffffffffffffffffffffffffffffffffffffffff1681565b60015442106102ed576040517f08c379a00000000000000000000000000000000000000000000000000000000081526004016102e4906107ec565b60405180910390fd5b80600260003373ffffffffffffffffffffffffffffffffffffffff1673ffffffffffffffffffffffffffffffffffffffff16815260200190815260200160002054101561036f576040517f08c379a000000000000000000000000000000000000000000000000000000000815260040161036690610858565b60405180910390fd5b60008060009054906101000a900473ffffffffffffffffffffffffffffffffffffffff16905081600260003373ffffffffffffffffffffffffffffffffffffffff1673ffffffffffffffffffffffffffffffffffffffff16815260200190815260200160002060008282546103e49190610878565b925050819055508073ffffffffffffffffffffffffffffffffffffffff1663a9059cbb33846040518363ffffffff1660e01b81526004016104269291906108ac565b6020604051808303816000875af1158015610445573d6000803e3d6000fd5b505050506040513d601f19601f8201168201806040525081019061046991906106ee565b505050565b6000600260003373ffffffffffffffffffffffffffffffffffffffff1673ffffffffffffffffffffffffffffffffffffffff16815260200190815260200160002054905090565b60015481565b600080fd5b600073ffffffffffffffffffffffffffffffffffffffff82169050919050565b60006104eb826104c0565b9050919050565b6104fb816104e0565b811461050657600080fd5b50565b600081359050610518816104f2565b92915050565b600060208284031215610534576105336104bb565b5b600061054284828501610509565b91505092915050565b6000819050919050565b61055e8161054b565b82525050565b60006020820190506105796000830184610555565b92915050565b6105888161054b565b811461059357600080fd5b50565b6000813590506105a58161057f565b92915050565b6000602082840312156105c1576105c06104bb565b5b60006105cf84828501610596565b91505092915050565b6105e1816104e0565b82525050565b60006020820190506105fc60008301846105d8565b92915050565b600082825260208201905092915050565b7f416d6f756e74206d7573742062652067726561746572207468616e2030000000600082015250565b6000610649601d83610602565b915061065482610613565b602082019050919050565b600060208201905081810360008301526106788161063c565b9050919050565b600060608201905061069460008301866105d8565b6106a160208301856105d8565b6106ae6040830184610555565b949350505050565b60008115159050919050565b6106cb816106b6565b81146106d657600080fd5b50565b6000815190506106e8816106c2565b92915050565b600060208284031215610704576107036104bb565b5b6000610712848285016106d9565b91505092915050565b7f4e487b7100000000000000000000000000000000000000000000000000000000600052601160045260246000fd5b60006107558261054b565b91506107608361054b565b9250827fffffffffffffffffffffffffffffffffffffffffffffffffffffffffffffffff038211156107955761079461071b565b5b828201905092915050565b7f526564656d7074696f6e20706572696f642068617320656e6465640000000000600082015250565b60006107d6601b83610602565b91506107e1826107a0565b602082019050919050565b60006020820190508181036000830152610805816107c9565b9050919050565b7f496e73756666696369656e742062616c616e636520746f2072656465656d0000600082015250565b6000610842601e83610602565b915061084d8261080c565b602082019050919050565b6000602082019050818103600083015261087181610835565b9050919050565b60006108838261054b565b915061088e8361054b565b9250828210156108a1576108a061071b565b5b828203905092915050565b60006040820190506108c160008301856105d8565b6108ce6020830184610555565b939250505056fea2646970667358221220cd7b78f7e9729718396c2e8cf19384c821c8c17dea9c47472659ab4632147ca764736f6c634300080d0033",
  "immutableReferences": {},
  "source": "// SPDX-License-Identifier: MIT \r\npragma solidity ^0.8.4;\r\n\r\nimport \"@openzeppelin/contracts/token/ERC20/IERC20.sol\";\r\n\r\ncontract LoyaltyProgram {\r\n    address public tokenAddress; // Address of the LoyaltyToken contract\r\n    uint256 public redemptionPeriod; // Time period in seconds after which tokens expire\r\n\r\n    mapping(address => uint256) public userBalances;\r\n\r\n    constructor(address _tokenAddress, uint256 _redemptionPeriod) {\r\n        tokenAddress = _tokenAddress;\r\n        redemptionPeriod = _redemptionPeriod;\r\n    }\r\n\r\n    modifier withinRedemptionPeriod() {\r\n        require(\r\n            block.timestamp < redemptionPeriod,\r\n            \"Redemption period has ended\"\r\n        );\r\n        _;\r\n    }\r\n\r\n    function earnTokens(uint256 amount) public {\r\n        require(amount > 0, \"Amount must be greater than 0\");\r\n        IERC20 token = IERC20(tokenAddress);\r\n        token.transferFrom(msg.sender, address(this), amount);\r\n        userBalances[msg.sender] += amount;\r\n    }\r\n\r\n    function redeemTokens(uint256 amount) public withinRedemptionPeriod {\r\n        require(\r\n            userBalances[msg.sender] >= amount,\r\n            \"Insufficient balance to redeem\"\r\n        );\r\n        IERC20 token = IERC20(tokenAddress);\r\n        userBalances[msg.sender] -= amount;\r\n        token.transfer(msg.sender, amount);\r\n    }\r\n\r\n    function checkBalance() public view returns (uint256) {\r\n        return userBalances[msg.sender];\r\n    }\r\n}\r\n",
  "sourcePath": "C:\\Users\\rajus\\Documents\\Flipkart_GRID_From_Scratch\\contracts\\LoyaltyProgram.sol",
  "compiler": {
    "name": "solc",
    "version": "0.8.13+commit.abaa5c0e.Emscripten.clang"
  },
  "schemaVersion": "3.4.15",
  "updatedAt": "2023-08-19T18:27:54.892Z",
  "devdoc": {
    "kind": "dev",
    "methods": {},
    "version": 1
  },
  "userdoc": {
    "kind": "user",
    "methods": {},
    "version": 1
  }
}