{
  "contractName": "MergedLoyaltyContract",
  "abi": [
    {
      "inputs": [
        {
          "internalType": "string",
          "name": "name",
          "type": "string"
        },
        {
          "internalType": "string",
          "name": "symbol",
          "type": "string"
        },
        {
          "internalType": "uint256",
          "name": "initialSupply",
          "type": "uint256"
        }
      ],
      "stateMutability": "nonpayable",
      "type": "constructor"
    },
    {
      "anonymous": false,
      "inputs": [
        {
          "indexed": true,
          "internalType": "address",
          "name": "owner",
          "type": "address"
        },
        {
          "indexed": true,
          "internalType": "address",
          "name": "spender",
          "type": "address"
        },
        {
          "indexed": false,
          "internalType": "uint256",
          "name": "value",
          "type": "uint256"
        }
      ],
      "name": "Approval",
      "type": "event"
    },
    {
      "anonymous": false,
      "inputs": [
        {
          "indexed": true,
          "internalType": "address",
          "name": "from",
          "type": "address"
        },
        {
          "indexed": true,
          "internalType": "address",
          "name": "to",
          "type": "address"
        },
        {
          "indexed": false,
          "internalType": "uint256",
          "name": "value",
          "type": "uint256"
        }
      ],
      "name": "Transfer",
      "type": "event"
    },
    {
      "inputs": [
        {
          "internalType": "address",
          "name": "owner",
          "type": "address"
        },
        {
          "internalType": "address",
          "name": "spender",
          "type": "address"
        }
      ],
      "name": "allowance",
      "outputs": [
        {
          "internalType": "uint256",
          "name": "",
          "type": "uint256"
        }
      ],
      "stateMutability": "view",
      "type": "function",
      "constant": true
    },
    {
      "inputs": [
        {
          "internalType": "address",
          "name": "spender",
          "type": "address"
        },
        {
          "internalType": "uint256",
          "name": "amount",
          "type": "uint256"
        }
      ],
      "name": "approve",
      "outputs": [
        {
          "internalType": "bool",
          "name": "",
          "type": "bool"
        }
      ],
      "stateMutability": "nonpayable",
      "type": "function"
    },
    {
      "inputs": [
        {
          "internalType": "address",
          "name": "account",
          "type": "address"
        }
      ],
      "name": "balanceOf",
      "outputs": [
        {
          "internalType": "uint256",
          "name": "",
          "type": "uint256"
        }
      ],
      "stateMutability": "view",
      "type": "function",
      "constant": true
    },
    {
      "inputs": [],
      "name": "decimals",
      "outputs": [
        {
          "internalType": "uint8",
          "name": "",
          "type": "uint8"
        }
      ],
      "stateMutability": "view",
      "type": "function",
      "constant": true
    },
    {
      "inputs": [
        {
          "internalType": "address",
          "name": "spender",
          "type": "address"
        },
        {
          "internalType": "uint256",
          "name": "subtractedValue",
          "type": "uint256"
        }
      ],
      "name": "decreaseAllowance",
      "outputs": [
        {
          "internalType": "bool",
          "name": "",
          "type": "bool"
        }
      ],
      "stateMutability": "nonpayable",
      "type": "function"
    },
    {
      "inputs": [
        {
          "internalType": "address",
          "name": "spender",
          "type": "address"
        },
        {
          "internalType": "uint256",
          "name": "addedValue",
          "type": "uint256"
        }
      ],
      "name": "increaseAllowance",
      "outputs": [
        {
          "internalType": "bool",
          "name": "",
          "type": "bool"
        }
      ],
      "stateMutability": "nonpayable",
      "type": "function"
    },
    {
      "inputs": [
        {
          "internalType": "address",
          "name": "",
          "type": "address"
        }
      ],
      "name": "isSeller",
      "outputs": [
        {
          "internalType": "bool",
          "name": "",
          "type": "bool"
        }
      ],
      "stateMutability": "view",
      "type": "function",
      "constant": true
    },
    {
      "inputs": [],
      "name": "name",
      "outputs": [
        {
          "internalType": "string",
          "name": "",
          "type": "string"
        }
      ],
      "stateMutability": "view",
      "type": "function",
      "constant": true
    },
    {
      "inputs": [],
      "name": "owner",
      "outputs": [
        {
          "internalType": "address",
          "name": "",
          "type": "address"
        }
      ],
      "stateMutability": "view",
      "type": "function",
      "constant": true
    },
    {
      "inputs": [],
      "name": "symbol",
      "outputs": [
        {
          "internalType": "string",
          "name": "",
          "type": "string"
        }
      ],
      "stateMutability": "view",
      "type": "function",
      "constant": true
    },
    {
      "inputs": [],
      "name": "totalSupply",
      "outputs": [
        {
          "internalType": "uint256",
          "name": "",
          "type": "uint256"
        }
      ],
      "stateMutability": "view",
      "type": "function",
      "constant": true
    },
    {
      "inputs": [
        {
          "internalType": "address",
          "name": "to",
          "type": "address"
        },
        {
          "internalType": "uint256",
          "name": "amount",
          "type": "uint256"
        }
      ],
      "name": "transfer",
      "outputs": [
        {
          "internalType": "bool",
          "name": "",
          "type": "bool"
        }
      ],
      "stateMutability": "nonpayable",
      "type": "function"
    },
    {
      "inputs": [
        {
          "internalType": "address",
          "name": "from",
          "type": "address"
        },
        {
          "internalType": "address",
          "name": "to",
          "type": "address"
        },
        {
          "internalType": "uint256",
          "name": "amount",
          "type": "uint256"
        }
      ],
      "name": "transferFrom",
      "outputs": [
        {
          "internalType": "bool",
          "name": "",
          "type": "bool"
        }
      ],
      "stateMutability": "nonpayable",
      "type": "function"
    },
    {
      "inputs": [
        {
          "internalType": "address",
          "name": "",
          "type": "address"
        }
      ],
      "name": "userBalances",
      "outputs": [
        {
          "internalType": "uint256",
          "name": "",
          "type": "uint256"
        }
      ],
      "stateMutability": "view",
      "type": "function",
      "constant": true
    },
    {
      "inputs": [
        {
          "internalType": "address",
          "name": "newSeller",
          "type": "address"
        }
      ],
      "name": "addSeller",
      "outputs": [],
      "stateMutability": "nonpayable",
      "type": "function"
    },
    {
      "inputs": [
        {
          "internalType": "address",
          "name": "seller",
          "type": "address"
        }
      ],
      "name": "removeSeller",
      "outputs": [],
      "stateMutability": "nonpayable",
      "type": "function"
    },
    {
      "inputs": [
        {
          "internalType": "address",
          "name": "seller",
          "type": "address"
        },
        {
          "internalType": "uint256",
          "name": "balance",
          "type": "uint256"
        }
      ],
      "name": "setSellerBalance",
      "outputs": [],
      "stateMutability": "nonpayable",
      "type": "function"
    },
    {
      "inputs": [
        {
          "internalType": "address",
          "name": "user",
          "type": "address"
        },
        {
          "internalType": "uint256",
          "name": "amount",
          "type": "uint256"
        }
      ],
      "name": "grantTokensToUser",
      "outputs": [],
      "stateMutability": "nonpayable",
      "type": "function"
    },
    {
      "inputs": [
        {
          "internalType": "uint256",
          "name": "amount",
          "type": "uint256"
        }
      ],
      "name": "redeemTokens",
      "outputs": [],
      "stateMutability": "nonpayable",
      "type": "function"
    },
    {
      "inputs": [],
      "name": "checkBalance",
      "outputs": [
        {
          "internalType": "uint256",
          "name": "",
          "type": "uint256"
        }
      ],
      "stateMutability": "view",
      "type": "function",
      "constant": true
    },
    {
      "inputs": [],
      "name": "getSender",
      "outputs": [
        {
          "internalType": "address",
          "name": "",
          "type": "address"
        }
      ],
      "stateMutability": "view",
      "type": "function",
      "constant": true
    }
  ],
  "bytecode": "0x60806040523480156200001157600080fd5b5060405162002a0438038062002a04833981810160405281019062000037919062000520565b828281600390805190602001906200005192919062000298565b5080600490805190602001906200006a92919062000298565b5050506200007f33826200012160201b60201c565b33600560006101000a81548173ffffffffffffffffffffffffffffffffffffffff021916908373ffffffffffffffffffffffffffffffffffffffff1602179055506001600760003373ffffffffffffffffffffffffffffffffffffffff1673ffffffffffffffffffffffffffffffffffffffff16815260200190815260200160002060006101000a81548160ff0219169083151502179055505050506200075b565b600073ffffffffffffffffffffffffffffffffffffffff168273ffffffffffffffffffffffffffffffffffffffff160362000193576040517f08c379a00000000000000000000000000000000000000000000000000000000081526004016200018a906200061b565b60405180910390fd5b620001a7600083836200028e60201b60201c565b8060026000828254620001bb91906200066c565b92505081905550806000808473ffffffffffffffffffffffffffffffffffffffff1673ffffffffffffffffffffffffffffffffffffffff168152602001908152602001600020600082825401925050819055508173ffffffffffffffffffffffffffffffffffffffff16600073ffffffffffffffffffffffffffffffffffffffff167fddf252ad1be2c89b69c2b068fc378daa952ba7f163c4a11628f55a4df523b3ef836040516200026e9190620006da565b60405180910390a36200028a600083836200029360201b60201c565b5050565b505050565b505050565b828054620002a69062000726565b90600052602060002090601f016020900481019282620002ca576000855562000316565b82601f10620002e557805160ff191683800117855562000316565b8280016001018555821562000316579182015b8281111562000315578251825591602001919060010190620002f8565b5b50905062000325919062000329565b5090565b5b80821115620003445760008160009055506001016200032a565b5090565b6000604051905090565b600080fd5b600080fd5b600080fd5b600080fd5b6000601f19601f8301169050919050565b7f4e487b7100000000000000000000000000000000000000000000000000000000600052604160045260246000fd5b620003b18262000366565b810181811067ffffffffffffffff82111715620003d357620003d262000377565b5b80604052505050565b6000620003e862000348565b9050620003f68282620003a6565b919050565b600067ffffffffffffffff82111562000419576200041862000377565b5b620004248262000366565b9050602081019050919050565b60005b838110156200045157808201518184015260208101905062000434565b8381111562000461576000848401525b50505050565b60006200047e6200047884620003fb565b620003dc565b9050828152602081018484840111156200049d576200049c62000361565b5b620004aa84828562000431565b509392505050565b600082601f830112620004ca57620004c96200035c565b5b8151620004dc84826020860162000467565b91505092915050565b6000819050919050565b620004fa81620004e5565b81146200050657600080fd5b50565b6000815190506200051a81620004ef565b92915050565b6000806000606084860312156200053c576200053b62000352565b5b600084015167ffffffffffffffff8111156200055d576200055c62000357565b5b6200056b86828701620004b2565b935050602084015167ffffffffffffffff8111156200058f576200058e62000357565b5b6200059d86828701620004b2565b9250506040620005b08682870162000509565b9150509250925092565b600082825260208201905092915050565b7f45524332303a206d696e7420746f20746865207a65726f206164647265737300600082015250565b600062000603601f83620005ba565b91506200061082620005cb565b602082019050919050565b600060208201905081810360008301526200063681620005f4565b9050919050565b7f4e487b7100000000000000000000000000000000000000000000000000000000600052601160045260246000fd5b60006200067982620004e5565b91506200068683620004e5565b9250827fffffffffffffffffffffffffffffffffffffffffffffffffffffffffffffffff03821115620006be57620006bd6200063d565b5b828201905092915050565b620006d481620004e5565b82525050565b6000602082019050620006f16000830184620006c9565b92915050565b7f4e487b7100000000000000000000000000000000000000000000000000000000600052602260045260246000fd5b600060028204905060018216806200073f57607f821691505b602082108103620007555762000754620006f7565b5b50919050565b612299806200076b6000396000f3fe608060405234801561001057600080fd5b50600436106101375760003560e01c80637cb9cf54116100b8578063a9059cbb1161007c578063a9059cbb14610364578063c71daccb14610394578063d93fabfa146103b2578063dd62ed3e146103ce578063ee95feaf146103fe578063fba6269c1461042e57610137565b80637cb9cf54146102c05780638da5cb5b146102dc57806395d89b41146102fa578063a457c2d714610318578063a6e158f81461034857610137565b8063313ce567116100ff578063313ce56714610208578063395093511461022657806353418aae146102565780635e01eb5a1461027257806370a082311461029057610137565b806306fdde031461013c578063095ea7b31461015a57806318160ddd1461018a57806323b872dd146101a857806326224c64146101d8575b600080fd5b61014461044a565b60405161015191906116d1565b60405180910390f35b610174600480360381019061016f919061178c565b6104dc565b60405161018191906117e7565b60405180910390f35b6101926104ff565b60405161019f9190611811565b60405180910390f35b6101c260048036038101906101bd919061182c565b610509565b6040516101cf91906117e7565b60405180910390f35b6101f260048036038101906101ed919061187f565b610538565b6040516101ff9190611811565b60405180910390f35b610210610550565b60405161021d91906118c8565b60405180910390f35b610240600480360381019061023b919061178c565b610559565b60405161024d91906117e7565b60405180910390f35b610270600480360381019061026b919061178c565b610590565b005b61027a6106c0565b60405161028791906118f2565b60405180910390f35b6102aa60048036038101906102a5919061187f565b6106ea565b6040516102b79190611811565b60405180910390f35b6102da60048036038101906102d5919061187f565b610732565b005b6102e461081d565b6040516102f191906118f2565b60405180910390f35b610302610843565b60405161030f91906116d1565b60405180910390f35b610332600480360381019061032d919061178c565b6108d5565b60405161033f91906117e7565b60405180910390f35b610362600480360381019061035d919061190d565b61094c565b005b61037e6004803603810190610379919061178c565b610a31565b60405161038b91906117e7565b60405180910390f35b61039c610a54565b6040516103a99190611811565b60405180910390f35b6103cc60048036038101906103c7919061187f565b610a9b565b005b6103e860048036038101906103e3919061193a565b610b86565b6040516103f59190611811565b60405180910390f35b6104186004803603810190610413919061187f565b610c0d565b60405161042591906117e7565b60405180910390f35b6104486004803603810190610443919061178c565b610c2d565b005b606060038054610459906119a9565b80601f0160208091040260200160405190810160405280929190818152602001828054610485906119a9565b80156104d25780601f106104a7576101008083540402835291602001916104d2565b820191906000526020600020905b8154815290600101906020018083116104b557829003601f168201915b5050505050905090565b6000806104e7610e38565b90506104f4818585610e40565b600191505092915050565b6000600254905090565b600080610514610e38565b9050610521858285611009565b61052c858585611095565b60019150509392505050565b60066020528060005260406000206000915090505481565b60006012905090565b600080610564610e38565b90506105858185856105768589610b86565b6105809190611a09565b610e40565b600191505092915050565b600560009054906101000a900473ffffffffffffffffffffffffffffffffffffffff1673ffffffffffffffffffffffffffffffffffffffff163373ffffffffffffffffffffffffffffffffffffffff1614610620576040517f08c379a000000000000000000000000000000000000000000000000000000000815260040161061790611ad1565b60405180910390fd5b80600660008473ffffffffffffffffffffffffffffffffffffffff1673ffffffffffffffffffffffffffffffffffffffff168152602001908152602001600020819055506001600760008473ffffffffffffffffffffffffffffffffffffffff1673ffffffffffffffffffffffffffffffffffffffff16815260200190815260200160002060006101000a81548160ff0219169083151502179055505050565b6000600560009054906101000a900473ffffffffffffffffffffffffffffffffffffffff16905090565b60008060008373ffffffffffffffffffffffffffffffffffffffff1673ffffffffffffffffffffffffffffffffffffffff168152602001908152602001600020549050919050565b600560009054906101000a900473ffffffffffffffffffffffffffffffffffffffff1673ffffffffffffffffffffffffffffffffffffffff163373ffffffffffffffffffffffffffffffffffffffff16146107c2576040517f08c379a00000000000000000000000000000000000000000000000000000000081526004016107b990611ad1565b60405180910390fd5b6000600760008373ffffffffffffffffffffffffffffffffffffffff1673ffffffffffffffffffffffffffffffffffffffff16815260200190815260200160002060006101000a81548160ff02191690831515021790555050565b600560009054906101000a900473ffffffffffffffffffffffffffffffffffffffff1681565b606060048054610852906119a9565b80601f016020809104026020016040519081016040528092919081815260200182805461087e906119a9565b80156108cb5780601f106108a0576101008083540402835291602001916108cb565b820191906000526020600020905b8154815290600101906020018083116108ae57829003601f168201915b5050505050905090565b6000806108e0610e38565b905060006108ee8286610b86565b905083811015610933576040517f08c379a000000000000000000000000000000000000000000000000000000000815260040161092a90611b63565b60405180910390fd5b6109408286868403610e40565b60019250505092915050565b80600660003373ffffffffffffffffffffffffffffffffffffffff1673ffffffffffffffffffffffffffffffffffffffff1681526020019081526020016000205410156109ce576040517f08c379a00000000000000000000000000000000000000000000000000000000081526004016109c590611bcf565b60405180910390fd5b6109d8338261130b565b80600660003373ffffffffffffffffffffffffffffffffffffffff1673ffffffffffffffffffffffffffffffffffffffff1681526020019081526020016000206000828254610a279190611bef565b9250508190555050565b600080610a3c610e38565b9050610a49818585611095565b600191505092915050565b6000600660003373ffffffffffffffffffffffffffffffffffffffff1673ffffffffffffffffffffffffffffffffffffffff16815260200190815260200160002054905090565b600560009054906101000a900473ffffffffffffffffffffffffffffffffffffffff1673ffffffffffffffffffffffffffffffffffffffff163373ffffffffffffffffffffffffffffffffffffffff1614610b2b576040517f08c379a0000000000000000000000000000000000000000000000000000000008152600401610b2290611ad1565b60405180910390fd5b6001600760008373ffffffffffffffffffffffffffffffffffffffff1673ffffffffffffffffffffffffffffffffffffffff16815260200190815260200160002060006101000a81548160ff02191690831515021790555050565b6000600160008473ffffffffffffffffffffffffffffffffffffffff1673ffffffffffffffffffffffffffffffffffffffff16815260200190815260200160002060008373ffffffffffffffffffffffffffffffffffffffff1673ffffffffffffffffffffffffffffffffffffffff16815260200190815260200160002054905092915050565b60076020528060005260406000206000915054906101000a900460ff1681565b600760003373ffffffffffffffffffffffffffffffffffffffff1673ffffffffffffffffffffffffffffffffffffffff16815260200190815260200160002060009054906101000a900460ff16610cb9576040517f08c379a0000000000000000000000000000000000000000000000000000000008152600401610cb090611c95565b60405180910390fd5b60008111610cfc576040517f08c379a0000000000000000000000000000000000000000000000000000000008152600401610cf390611d01565b60405180910390fd5b80600660003373ffffffffffffffffffffffffffffffffffffffff1673ffffffffffffffffffffffffffffffffffffffff168152602001908152602001600020541015610d7e576040517f08c379a0000000000000000000000000000000000000000000000000000000008152600401610d7590611d6d565b60405180910390fd5b80600660003373ffffffffffffffffffffffffffffffffffffffff1673ffffffffffffffffffffffffffffffffffffffff1681526020019081526020016000206000828254610dcd9190611bef565b9250508190555080600660008473ffffffffffffffffffffffffffffffffffffffff1673ffffffffffffffffffffffffffffffffffffffff1681526020019081526020016000206000828254610e239190611a09565b92505081905550610e3482826114d8565b5050565b600033905090565b600073ffffffffffffffffffffffffffffffffffffffff168373ffffffffffffffffffffffffffffffffffffffff1603610eaf576040517f08c379a0000000000000000000000000000000000000000000000000000000008152600401610ea690611dff565b60405180910390fd5b600073ffffffffffffffffffffffffffffffffffffffff168273ffffffffffffffffffffffffffffffffffffffff1603610f1e576040517f08c379a0000000000000000000000000000000000000000000000000000000008152600401610f1590611e91565b60405180910390fd5b80600160008573ffffffffffffffffffffffffffffffffffffffff1673ffffffffffffffffffffffffffffffffffffffff16815260200190815260200160002060008473ffffffffffffffffffffffffffffffffffffffff1673ffffffffffffffffffffffffffffffffffffffff168152602001908152602001600020819055508173ffffffffffffffffffffffffffffffffffffffff168373ffffffffffffffffffffffffffffffffffffffff167f8c5be1e5ebec7d5bd14f71427d1e84f3dd0314c0f7b2291e5b200ac8c7c3b92583604051610ffc9190611811565b60405180910390a3505050565b60006110158484610b86565b90507fffffffffffffffffffffffffffffffffffffffffffffffffffffffffffffffff811461108f5781811015611081576040517f08c379a000000000000000000000000000000000000000000000000000000000815260040161107890611efd565b60405180910390fd5b61108e8484848403610e40565b5b50505050565b600073ffffffffffffffffffffffffffffffffffffffff168373ffffffffffffffffffffffffffffffffffffffff1603611104576040517f08c379a00000000000000000000000000000000000000000000000000000000081526004016110fb90611f8f565b60405180910390fd5b600073ffffffffffffffffffffffffffffffffffffffff168273ffffffffffffffffffffffffffffffffffffffff1603611173576040517f08c379a000000000000000000000000000000000000000000000000000000000815260040161116a90612021565b60405180910390fd5b61117e83838361162e565b60008060008573ffffffffffffffffffffffffffffffffffffffff1673ffffffffffffffffffffffffffffffffffffffff16815260200190815260200160002054905081811015611204576040517f08c379a00000000000000000000000000000000000000000000000000000000081526004016111fb906120b3565b60405180910390fd5b8181036000808673ffffffffffffffffffffffffffffffffffffffff1673ffffffffffffffffffffffffffffffffffffffff16815260200190815260200160002081905550816000808573ffffffffffffffffffffffffffffffffffffffff1673ffffffffffffffffffffffffffffffffffffffff168152602001908152602001600020600082825401925050819055508273ffffffffffffffffffffffffffffffffffffffff168473ffffffffffffffffffffffffffffffffffffffff167fddf252ad1be2c89b69c2b068fc378daa952ba7f163c4a11628f55a4df523b3ef846040516112f29190611811565b60405180910390a3611305848484611633565b50505050565b600073ffffffffffffffffffffffffffffffffffffffff168273ffffffffffffffffffffffffffffffffffffffff160361137a576040517f08c379a000000000000000000000000000000000000000000000000000000000815260040161137190612145565b60405180910390fd5b6113868260008361162e565b60008060008473ffffffffffffffffffffffffffffffffffffffff1673ffffffffffffffffffffffffffffffffffffffff1681526020019081526020016000205490508181101561140c576040517f08c379a0000000000000000000000000000000000000000000000000000000008152600401611403906121d7565b60405180910390fd5b8181036000808573ffffffffffffffffffffffffffffffffffffffff1673ffffffffffffffffffffffffffffffffffffffff1681526020019081526020016000208190555081600260008282540392505081905550600073ffffffffffffffffffffffffffffffffffffffff168373ffffffffffffffffffffffffffffffffffffffff167fddf252ad1be2c89b69c2b068fc378daa952ba7f163c4a11628f55a4df523b3ef846040516114bf9190611811565b60405180910390a36114d383600084611633565b505050565b600073ffffffffffffffffffffffffffffffffffffffff168273ffffffffffffffffffffffffffffffffffffffff1603611547576040517f08c379a000000000000000000000000000000000000000000000000000000000815260040161153e90612243565b60405180910390fd5b6115536000838361162e565b80600260008282546115659190611a09565b92505081905550806000808473ffffffffffffffffffffffffffffffffffffffff1673ffffffffffffffffffffffffffffffffffffffff168152602001908152602001600020600082825401925050819055508173ffffffffffffffffffffffffffffffffffffffff16600073ffffffffffffffffffffffffffffffffffffffff167fddf252ad1be2c89b69c2b068fc378daa952ba7f163c4a11628f55a4df523b3ef836040516116169190611811565b60405180910390a361162a60008383611633565b5050565b505050565b505050565b600081519050919050565b600082825260208201905092915050565b60005b83811015611672578082015181840152602081019050611657565b83811115611681576000848401525b50505050565b6000601f19601f8301169050919050565b60006116a382611638565b6116ad8185611643565b93506116bd818560208601611654565b6116c681611687565b840191505092915050565b600060208201905081810360008301526116eb8184611698565b905092915050565b600080fd5b600073ffffffffffffffffffffffffffffffffffffffff82169050919050565b6000611723826116f8565b9050919050565b61173381611718565b811461173e57600080fd5b50565b6000813590506117508161172a565b92915050565b6000819050919050565b61176981611756565b811461177457600080fd5b50565b60008135905061178681611760565b92915050565b600080604083850312156117a3576117a26116f3565b5b60006117b185828601611741565b92505060206117c285828601611777565b9150509250929050565b60008115159050919050565b6117e1816117cc565b82525050565b60006020820190506117fc60008301846117d8565b92915050565b61180b81611756565b82525050565b60006020820190506118266000830184611802565b92915050565b600080600060608486031215611845576118446116f3565b5b600061185386828701611741565b935050602061186486828701611741565b925050604061187586828701611777565b9150509250925092565b600060208284031215611895576118946116f3565b5b60006118a384828501611741565b91505092915050565b600060ff82169050919050565b6118c2816118ac565b82525050565b60006020820190506118dd60008301846118b9565b92915050565b6118ec81611718565b82525050565b600060208201905061190760008301846118e3565b92915050565b600060208284031215611923576119226116f3565b5b600061193184828501611777565b91505092915050565b60008060408385031215611951576119506116f3565b5b600061195f85828601611741565b925050602061197085828601611741565b9150509250929050565b7f4e487b7100000000000000000000000000000000000000000000000000000000600052602260045260246000fd5b600060028204905060018216806119c157607f821691505b6020821081036119d4576119d361197a565b5b50919050565b7f4e487b7100000000000000000000000000000000000000000000000000000000600052601160045260246000fd5b6000611a1482611756565b9150611a1f83611756565b9250827fffffffffffffffffffffffffffffffffffffffffffffffffffffffffffffffff03821115611a5457611a536119da565b5b828201905092915050565b7f4f6e6c7920746865206f776e65722063616e20706572666f726d20746869732060008201527f616374696f6e0000000000000000000000000000000000000000000000000000602082015250565b6000611abb602683611643565b9150611ac682611a5f565b604082019050919050565b60006020820190508181036000830152611aea81611aae565b9050919050565b7f45524332303a2064656372656173656420616c6c6f77616e63652062656c6f7760008201527f207a65726f000000000000000000000000000000000000000000000000000000602082015250565b6000611b4d602583611643565b9150611b5882611af1565b604082019050919050565b60006020820190508181036000830152611b7c81611b40565b9050919050565b7f496e73756666696369656e742062616c616e636520746f2072656465656d0000600082015250565b6000611bb9601e83611643565b9150611bc482611b83565b602082019050919050565b60006020820190508181036000830152611be881611bac565b9050919050565b6000611bfa82611756565b9150611c0583611756565b925082821015611c1857611c176119da565b5b828203905092915050565b7f4f6e6c7920617574686f72697a65642073656c6c6572732063616e207065726660008201527f6f726d207468697320616374696f6e0000000000000000000000000000000000602082015250565b6000611c7f602f83611643565b9150611c8a82611c23565b604082019050919050565b60006020820190508181036000830152611cae81611c72565b9050919050565b7f416d6f756e74206d7573742062652067726561746572207468616e2030000000600082015250565b6000611ceb601d83611643565b9150611cf682611cb5565b602082019050919050565b60006020820190508181036000830152611d1a81611cde565b9050919050565b7f496e73756666696369656e742073656c6c65722062616c616e63650000000000600082015250565b6000611d57601b83611643565b9150611d6282611d21565b602082019050919050565b60006020820190508181036000830152611d8681611d4a565b9050919050565b7f45524332303a20617070726f76652066726f6d20746865207a65726f2061646460008201527f7265737300000000000000000000000000000000000000000000000000000000602082015250565b6000611de9602483611643565b9150611df482611d8d565b604082019050919050565b60006020820190508181036000830152611e1881611ddc565b9050919050565b7f45524332303a20617070726f766520746f20746865207a65726f20616464726560008201527f7373000000000000000000000000000000000000000000000000000000000000602082015250565b6000611e7b602283611643565b9150611e8682611e1f565b604082019050919050565b60006020820190508181036000830152611eaa81611e6e565b9050919050565b7f45524332303a20696e73756666696369656e7420616c6c6f77616e6365000000600082015250565b6000611ee7601d83611643565b9150611ef282611eb1565b602082019050919050565b60006020820190508181036000830152611f1681611eda565b9050919050565b7f45524332303a207472616e736665722066726f6d20746865207a65726f20616460008201527f6472657373000000000000000000000000000000000000000000000000000000602082015250565b6000611f79602583611643565b9150611f8482611f1d565b604082019050919050565b60006020820190508181036000830152611fa881611f6c565b9050919050565b7f45524332303a207472616e7366657220746f20746865207a65726f206164647260008201527f6573730000000000000000000000000000000000000000000000000000000000602082015250565b600061200b602383611643565b915061201682611faf565b604082019050919050565b6000602082019050818103600083015261203a81611ffe565b9050919050565b7f45524332303a207472616e7366657220616d6f756e742065786365656473206260008201527f616c616e63650000000000000000000000000000000000000000000000000000602082015250565b600061209d602683611643565b91506120a882612041565b604082019050919050565b600060208201905081810360008301526120cc81612090565b9050919050565b7f45524332303a206275726e2066726f6d20746865207a65726f2061646472657360008201527f7300000000000000000000000000000000000000000000000000000000000000602082015250565b600061212f602183611643565b915061213a826120d3565b604082019050919050565b6000602082019050818103600083015261215e81612122565b9050919050565b7f45524332303a206275726e20616d6f756e7420657863656564732062616c616e60008201527f6365000000000000000000000000000000000000000000000000000000000000602082015250565b60006121c1602283611643565b91506121cc82612165565b604082019050919050565b600060208201905081810360008301526121f0816121b4565b9050919050565b7f45524332303a206d696e7420746f20746865207a65726f206164647265737300600082015250565b600061222d601f83611643565b9150612238826121f7565b602082019050919050565b6000602082019050818103600083015261225c81612220565b905091905056fea26469706673582212207d20f0ada0ee6815fe91cfa6f47a4453421ab581e4ea1b646077414ad72a0ef664736f6c634300080d0033",
  "immutableReferences": {},
  "source": "// SPDX-License-Identifier: MIT\r\npragma solidity ^0.8.4;\r\n\r\nimport \"@openzeppelin/contracts/token/ERC20/ERC20.sol\";\r\nimport \"@openzeppelin/contracts/token/ERC20/IERC20.sol\";\r\n\r\ncontract MergedLoyaltyContract is ERC20 {\r\n    address public owner;\r\n\r\n    mapping(address => uint256) public userBalances;\r\n    // mapping(address => uint256) public sellerBalances;\r\n    mapping(address => bool) public isSeller;\r\n    // address[] public users;\r\n\r\n    constructor(\r\n        string memory name,\r\n        string memory symbol,\r\n        uint256 initialSupply\r\n    ) ERC20(name, symbol) {\r\n        _mint(msg.sender, initialSupply);\r\n        owner = msg.sender;\r\n        isSeller[msg.sender] = true; // Owner is also a seller by default\r\n    }\r\n\r\n    modifier onlyOwner() {\r\n        require(msg.sender == owner, \"Only the owner can perform this action\");\r\n        _;\r\n    }\r\n\r\n    modifier onlySeller() {\r\n        require(\r\n            isSeller[msg.sender],\r\n            \"Only authorized sellers can perform this action\"\r\n        );\r\n        _;\r\n    }\r\n\r\n    function addSeller(address newSeller) public onlyOwner {\r\n        isSeller[newSeller] = true;\r\n    }\r\n\r\n    function removeSeller(address seller) public onlyOwner {\r\n        isSeller[seller] = false;\r\n    }\r\n\r\n    function setSellerBalance(\r\n        address seller,\r\n        uint256 balance\r\n    ) public onlyOwner {\r\n        userBalances[seller] = balance;\r\n        isSeller[seller] = true;\r\n    }\r\n\r\n    function grantTokensToUser(address user, uint256 amount) public onlySeller {\r\n        require(amount > 0, \"Amount must be greater than 0\");\r\n        require(\r\n            userBalances[msg.sender] >= amount,\r\n            \"Insufficient seller balance\"\r\n        );\r\n\r\n        userBalances[msg.sender] -= amount;\r\n        userBalances[user] += amount;\r\n        _mint(user, amount);\r\n        // if(!findUser(user)) users.push(user);\r\n    }\r\n\r\n    function redeemTokens(uint256 amount) public {\r\n        require(\r\n            userBalances[msg.sender] >= amount,\r\n            \"Insufficient balance to redeem\"\r\n        );\r\n\r\n        _burn(msg.sender, amount);\r\n        userBalances[msg.sender] -= amount;\r\n    }\r\n\r\n    \r\n\r\n    function checkBalance() public view returns (uint256) {\r\n        return userBalances[msg.sender];\r\n    }\r\n\r\n    // function mint(address account, uint256 amount) public onlyOwner {\r\n    //     _mint(account, amount);\r\n    //     // if(!isSeller[account] && !findUser(account)) users.push(account);\r\n\r\n    //     userBalances[account] += amount;\r\n\r\n    // }\r\n\r\n    function getSender() public view returns (address) {\r\n        return owner;\r\n    }\r\n}\r\n// function getAllUserBalances() public view onlyOwner returns (address[] memory, uint256[] memory) {\r\n//     uint256 userCount = users.length; // Assuming you have a list of users\r\n//     address[] memory userAddresses = new address[](userCount);\r\n//     uint256[] memory userBalancesArray = new uint256[](userCount);\r\n\r\n//     for (uint256 i = 0; i < userCount; i++) {\r\n//         address user = users[i]; // Assuming you have a list of users\r\n//         userAddresses[i] = user;\r\n//         userBalancesArray[i] = userBalances[user];\r\n//     }\r\n\r\n//     return (userAddresses, userBalancesArray);\r\n// }\r\n\r\n//     function findUser(address user) public view returns (bool) {\r\n//             for (uint256 i = 0; i < users.length; i++) {\r\n//                 if (users[i] == user) {\r\n//                     return true;\r\n//                 }\r\n//             }\r\n//             return false;\r\n//     }\r\n// }\r\n",
  "sourcePath": "C:\\Users\\rajus\\Documents\\Flipkart_GRID_From_Scratch\\contracts\\MergedLoyaltyContract.sol",
  "compiler": {
    "name": "solc",
    "version": "0.8.13+commit.abaa5c0e.Emscripten.clang"
  },
  "schemaVersion": "3.4.15",
  "updatedAt": "2023-08-20T12:12:53.059Z",
  "networkType": "ethereum",
  "devdoc": {
    "kind": "dev",
    "methods": {
      "allowance(address,address)": {
        "details": "See {IERC20-allowance}."
      },
      "approve(address,uint256)": {
        "details": "See {IERC20-approve}. NOTE: If `amount` is the maximum `uint256`, the allowance is not updated on `transferFrom`. This is semantically equivalent to an infinite approval. Requirements: - `spender` cannot be the zero address."
      },
      "balanceOf(address)": {
        "details": "See {IERC20-balanceOf}."
      },
      "decimals()": {
        "details": "Returns the number of decimals used to get its user representation. For example, if `decimals` equals `2`, a balance of `505` tokens should be displayed to a user as `5.05` (`505 / 10 ** 2`). Tokens usually opt for a value of 18, imitating the relationship between Ether and Wei. This is the default value returned by this function, unless it's overridden. NOTE: This information is only used for _display_ purposes: it in no way affects any of the arithmetic of the contract, including {IERC20-balanceOf} and {IERC20-transfer}."
      },
      "decreaseAllowance(address,uint256)": {
        "details": "Atomically decreases the allowance granted to `spender` by the caller. This is an alternative to {approve} that can be used as a mitigation for problems described in {IERC20-approve}. Emits an {Approval} event indicating the updated allowance. Requirements: - `spender` cannot be the zero address. - `spender` must have allowance for the caller of at least `subtractedValue`."
      },
      "increaseAllowance(address,uint256)": {
        "details": "Atomically increases the allowance granted to `spender` by the caller. This is an alternative to {approve} that can be used as a mitigation for problems described in {IERC20-approve}. Emits an {Approval} event indicating the updated allowance. Requirements: - `spender` cannot be the zero address."
      },
      "name()": {
        "details": "Returns the name of the token."
      },
      "symbol()": {
        "details": "Returns the symbol of the token, usually a shorter version of the name."
      },
      "totalSupply()": {
        "details": "See {IERC20-totalSupply}."
      },
      "transfer(address,uint256)": {
        "details": "See {IERC20-transfer}. Requirements: - `to` cannot be the zero address. - the caller must have a balance of at least `amount`."
      },
      "transferFrom(address,address,uint256)": {
        "details": "See {IERC20-transferFrom}. Emits an {Approval} event indicating the updated allowance. This is not required by the EIP. See the note at the beginning of {ERC20}. NOTE: Does not update the allowance if the current allowance is the maximum `uint256`. Requirements: - `from` and `to` cannot be the zero address. - `from` must have a balance of at least `amount`. - the caller must have allowance for ``from``'s tokens of at least `amount`."
      }
    },
    "version": 1
  },
  "userdoc": {
    "kind": "user",
    "methods": {},
    "version": 1
  }
}