{
  "contractName": "TokenDecay",
  "abi": [
    {
      "inputs": [
        {
          "internalType": "address",
          "name": "_tokenAddress",
          "type": "address"
        }
      ],
      "stateMutability": "nonpayable",
      "type": "constructor"
    },
    {
      "inputs": [],
      "name": "tokenAddress",
      "outputs": [
        {
          "internalType": "address",
          "name": "",
          "type": "address"
        }
      ],
      "stateMutability": "view",
      "type": "function"
    },
    {
      "inputs": [],
      "name": "decayTokens",
      "outputs": [],
      "stateMutability": "nonpayable",
      "type": "function"
    }
  ],
  "bytecode": "0x608060405234801561001057600080fd5b506040516104ce3803806104ce833981810160405281019061003291906100db565b806000806101000a81548173ffffffffffffffffffffffffffffffffffffffff021916908373ffffffffffffffffffffffffffffffffffffffff16021790555050610108565b600080fd5b600073ffffffffffffffffffffffffffffffffffffffff82169050919050565b60006100a88261007d565b9050919050565b6100b88161009d565b81146100c357600080fd5b50565b6000815190506100d5816100af565b92915050565b6000602082840312156100f1576100f0610078565b5b60006100ff848285016100c6565b91505092915050565b6103b7806101176000396000f3fe608060405234801561001057600080fd5b50600436106100365760003560e01c80639d76ea581461003b578063e2032a4914610059575b600080fd5b610043610063565b6040516100509190610201565b60405180910390f35b610061610087565b005b60008054906101000a900473ffffffffffffffffffffffffffffffffffffffff1681565b60008060009054906101000a900473ffffffffffffffffffffffffffffffffffffffff16905060008173ffffffffffffffffffffffffffffffffffffffff166370a08231336040518263ffffffff1660e01b81526004016100e89190610201565b602060405180830381865afa158015610105573d6000803e3d6000fd5b505050506040513d601f19601f820116820180604052508101906101299190610257565b90506000600a8261013a91906102b3565b90508273ffffffffffffffffffffffffffffffffffffffff1663a9059cbb30836040518363ffffffff1660e01b81526004016101779291906102f3565b6020604051808303816000875af1158015610196573d6000803e3d6000fd5b505050506040513d601f19601f820116820180604052508101906101ba9190610354565b50505050565b600073ffffffffffffffffffffffffffffffffffffffff82169050919050565b60006101eb826101c0565b9050919050565b6101fb816101e0565b82525050565b600060208201905061021660008301846101f2565b92915050565b600080fd5b6000819050919050565b61023481610221565b811461023f57600080fd5b50565b6000815190506102518161022b565b92915050565b60006020828403121561026d5761026c61021c565b5b600061027b84828501610242565b91505092915050565b7f4e487b7100000000000000000000000000000000000000000000000000000000600052601260045260246000fd5b60006102be82610221565b91506102c983610221565b9250826102d9576102d8610284565b5b828204905092915050565b6102ed81610221565b82525050565b600060408201905061030860008301856101f2565b61031560208301846102e4565b9392505050565b60008115159050919050565b6103318161031c565b811461033c57600080fd5b50565b60008151905061034e81610328565b92915050565b60006020828403121561036a5761036961021c565b5b60006103788482850161033f565b9150509291505056fea2646970667358221220d650b75289a93fb8aeb2d3315828d15fa63ccc50f68345b86470dfcc8c3f1bae64736f6c634300080d0033",
  "immutableReferences": {},
  "source": "// SPDX-License-Identifier: MIT \r\npragma solidity ^0.8.4;\r\n\r\nimport \"@openzeppelin/contracts/token/ERC20/IERC20.sol\";\r\nimport \"@openzeppelin/contracts/token/ERC20/IERC20.sol\";\r\n\r\n\r\n\r\ncontract TokenDecay {\r\n    address public tokenAddress; // Address of the LoyaltyToken contract\r\n\r\n    constructor(address _tokenAddress) {\r\n        tokenAddress = _tokenAddress;\r\n    }\r\n\r\n    function decayTokens() public {\r\n        IERC20 token = IERC20(tokenAddress);\r\n        uint256 userBalance = token.balanceOf(msg.sender);\r\n        uint256 decayedAmount = userBalance / 10; // For example, decay 10% of the balance\r\n        token.transfer(address(this), decayedAmount);\r\n    }\r\n}\r\n",
  "sourcePath": "C:\\Users\\rajus\\Documents\\Flipkart_GRID_From_Scratch\\contracts\\TokenDecay.sol",
  "compiler": {
    "name": "solc",
    "version": "0.8.13+commit.abaa5c0e.Emscripten.clang"
  },
  "schemaVersion": "3.4.15",
  "updatedAt": "2023-08-19T18:30:08.427Z",
  "devdoc": {
    "kind": "dev",
    "methods": {},
    "version": 1
  },
  "userdoc": {
    "kind": "user",
    "methods": {},
    "version": 1
  }
}